{
  "contractName": "SimpleBank",
  "abi": [
    {
      "inputs": [],
      "payable": false,
      "stateMutability": "nonpayable",
      "type": "constructor"
    },
    {
      "constant": true,
      "inputs": [],
      "name": "owner",
      "outputs": [
        {
          "internalType": "address",
          "name": "",
          "type": "address"
        }
      ],
      "payable": false,
      "stateMutability": "view",
      "type": "function"
    },
    {
      "constant": false,
      "inputs": [],
      "name": "deposit",
      "outputs": [
        {
          "internalType": "uint256",
          "name": "",
          "type": "uint256"
        }
      ],
      "payable": true,
      "stateMutability": "payable",
      "type": "function"
    },
    {
      "constant": false,
      "inputs": [
        {
          "internalType": "uint256",
          "name": "withdrawAmount",
          "type": "uint256"
        }
      ],
      "name": "withdraw",
      "outputs": [],
      "payable": false,
      "stateMutability": "nonpayable",
      "type": "function"
    },
    {
      "constant": true,
      "inputs": [],
      "name": "getBalance",
      "outputs": [
        {
          "internalType": "uint256",
          "name": "",
          "type": "uint256"
        }
      ],
      "payable": false,
      "stateMutability": "view",
      "type": "function"
    },
    {
      "constant": true,
      "inputs": [],
      "name": "getContractBalance",
      "outputs": [
        {
          "internalType": "uint256",
          "name": "",
          "type": "uint256"
        }
      ],
      "payable": false,
      "stateMutability": "view",
      "type": "function"
    }
  ],
  "bytecode": "0x608060405234801561001057600080fd5b50336000806101000a81548173ffffffffffffffffffffffffffffffffffffffff021916908373ffffffffffffffffffffffffffffffffffffffff160217905550610370806100606000396000f3fe60806040526004361061004a5760003560e01c806312065fe01461004f5780632e1a7d4d1461007a5780636f9fb98a146100b55780638da5cb5b146100e0578063d0e30db014610137575b600080fd5b34801561005b57600080fd5b50610064610155565b6040518082815260200191505060405180910390f35b34801561008657600080fd5b506100b36004803603602081101561009d57600080fd5b810190808035906020019092919050505061019c565b005b3480156100c157600080fd5b506100ca61027a565b6040518082815260200191505060405180910390f35b3480156100ec57600080fd5b506100f5610282565b604051808273ffffffffffffffffffffffffffffffffffffffff1673ffffffffffffffffffffffffffffffffffffffff16815260200191505060405180910390f35b61013f6102a7565b6040518082815260200191505060405180910390f35b6000600160003373ffffffffffffffffffffffffffffffffffffffff1673ffffffffffffffffffffffffffffffffffffffff16815260200190815260200160002054905090565b600160003373ffffffffffffffffffffffffffffffffffffffff1673ffffffffffffffffffffffffffffffffffffffff1681526020019081526020016000205481116102775780600160003373ffffffffffffffffffffffffffffffffffffffff1673ffffffffffffffffffffffffffffffffffffffff168152602001908152602001600020600082825403925050819055503373ffffffffffffffffffffffffffffffffffffffff166108fc829081150290604051600060405180830381858888f19350505050158015610275573d6000803e3d6000fd5b505b50565b600047905090565b6000809054906101000a900473ffffffffffffffffffffffffffffffffffffffff1681565b600034600160003373ffffffffffffffffffffffffffffffffffffffff1673ffffffffffffffffffffffffffffffffffffffff16815260200190815260200160002060008282540192505081905550600160003373ffffffffffffffffffffffffffffffffffffffff1673ffffffffffffffffffffffffffffffffffffffff1681526020019081526020016000205490509056fea265627a7a723158205d068dc1addae1756933aaab3c9ea789472165308fa1ca9ad1e999f8a352287464736f6c63430005100032",
  "source": "pragma solidity ^0.5.16;\n\ncontract SimpleBank {\n    address public owner;\n    mapping (address => uint256) private balanceOf;\n    \n    constructor() public {\n        owner = msg.sender;\n    }\n\n    function deposit() public payable returns (uint256) {\n        balanceOf[msg.sender] += msg.value;\n        return balanceOf[msg.sender];\n    }\n\n    function withdraw(uint256 withdrawAmount) public {\n        if (withdrawAmount <= balanceOf[msg.sender]) {\n            balanceOf[msg.sender] -= withdrawAmount;\n            msg.sender.transfer(withdrawAmount);\n        }\n    }\n\n    function getBalance() public view returns (uint256) {\n        return balanceOf[msg.sender];\n    }\n\n    /// @return The balance of the Simple Bank contract\n    function getContractBalance() public view returns (uint256) {\n        return address(this).balance;\n    }\n}",
  "sourcePath": "/home/sidoux/Desktop/solidity-bank/contracts/SimpleBank.sol",
  "compiler": {
    "name": "solc",
    "version": "0.5.16+commit.9c3226ce.Emscripten.clang"
  },
  "schemaVersion": "3.3.3",
  "updatedAt": "2021-01-22T10:02:32.759Z",
  "networkType": "ethereum",
  "devdoc": {
    "methods": {
      "getContractBalance()": {
        "return": "The balance of the Simple Bank contract"
      }
    }
  },
  "userdoc": {
    "methods": {}
  }
}