{
  "contractName": "SimpleBank",
  "abi": [
    {
      "inputs": [],
      "payable": false,
      "stateMutability": "nonpayable",
      "type": "constructor"
    },
    {
      "constant": true,
      "inputs": [],
      "name": "getBalance",
      "outputs": [
        {
          "internalType": "uint256",
          "name": "",
          "type": "uint256"
        }
      ],
      "payable": false,
      "stateMutability": "view",
      "type": "function"
    },
    {
      "constant": false,
      "inputs": [
        {
          "internalType": "uint256",
          "name": "amount",
          "type": "uint256"
        }
      ],
      "name": "withdraw",
      "outputs": [],
      "payable": false,
      "stateMutability": "nonpayable",
      "type": "function"
    },
    {
      "constant": false,
      "inputs": [
        {
          "internalType": "uint256",
          "name": "amount",
          "type": "uint256"
        }
      ],
      "name": "deposit",
      "outputs": [],
      "payable": false,
      "stateMutability": "nonpayable",
      "type": "function"
    }
  ],
  "bytecode": "0x608060405234801561001057600080fd5b50600160008190555061010d806100286000396000f3fe6080604052348015600f57600080fd5b5060043610603c5760003560e01c806312065fe01460415780632e1a7d4d14605d578063b6b55f25146088575b600080fd5b604760b3565b6040518082815260200191505060405180910390f35b608660048036036020811015607157600080fd5b810190808035906020019092919050505060bc565b005b60b160048036036020811015609c57600080fd5b810190808035906020019092919050505060ca565b005b60008054905090565b806000540360008190555050565b80600054016000819055505056fea265627a7a723158203e660826c8631489acbd99f7bb18bb51ed7be65bc9b91bedad5f4059e5e1426064736f6c63430005100032",
  "source": "pragma solidity ^0.5.16;\n\ncontract SimpleBank {\n    uint256 balance;\n    \n    constructor() public {\n        balance = 1;\n    }\n    \n    function getBalance() public view returns(uint256) {\n        return balance;\n    }\n    \n    function withdraw(uint256 amount) public{\n        balance = balance - amount;\n    }\n    \n    function deposit(uint256 amount) public {\n        balance = balance + amount;\n    }\n}",
  "sourcePath": "/home/sidoux/Desktop/solidity-bank/contracts/SimpleBank.sol",
  "compiler": {
    "name": "solc",
    "version": "0.5.16+commit.9c3226ce.Emscripten.clang"
  },
  "schemaVersion": "3.3.3",
  "updatedAt": "2021-01-22T09:19:34.976Z",
  "networkType": "ethereum",
  "devdoc": {
    "methods": {}
  },
  "userdoc": {
    "methods": {}
  }
}